{
  "contractName": "Authenticator",
  "abi": [
    {
      "inputs": [],
      "name": "authorizedUser",
      "outputs": [
        {
          "internalType": "address",
          "name": "",
          "type": "address"
        }
      ],
      "stateMutability": "view",
      "type": "function",
      "constant": true
    },
    {
      "inputs": [
        {
          "internalType": "address",
          "name": "_user",
          "type": "address"
        }
      ],
      "name": "authorize",
      "outputs": [],
      "stateMutability": "nonpayable",
      "type": "function"
    },
    {
      "inputs": [],
      "name": "isAuthorized",
      "outputs": [
        {
          "internalType": "bool",
          "name": "",
          "type": "bool"
        }
      ],
      "stateMutability": "view",
      "type": "function",
      "constant": true
    }
  ],
  "bytecode": "0x608060405234801561001057600080fd5b50610282806100206000396000f3fe608060405234801561001057600080fd5b50600436106100415760003560e01c806357e6c2f414610046578063b6a5d7de14610064578063e53e81de14610080575b600080fd5b61004e61009e565b60405161005b9190610177565b60405180910390f35b61007e600480360381019061007991906101f5565b6100f5565b005b610088610138565b6040516100959190610231565b60405180910390f35b60008060009054906101000a900473ffffffffffffffffffffffffffffffffffffffff1673ffffffffffffffffffffffffffffffffffffffff163373ffffffffffffffffffffffffffffffffffffffff1614905090565b806000806101000a81548173ffffffffffffffffffffffffffffffffffffffff021916908373ffffffffffffffffffffffffffffffffffffffff16021790555050565b60008054906101000a900473ffffffffffffffffffffffffffffffffffffffff1681565b60008115159050919050565b6101718161015c565b82525050565b600060208201905061018c6000830184610168565b92915050565b600080fd5b600073ffffffffffffffffffffffffffffffffffffffff82169050919050565b60006101c282610197565b9050919050565b6101d2816101b7565b81146101dd57600080fd5b50565b6000813590506101ef816101c9565b92915050565b60006020828403121561020b5761020a610192565b5b6000610219848285016101e0565b91505092915050565b61022b816101b7565b82525050565b60006020820190506102466000830184610222565b9291505056fea2646970667358221220066f2fee2ecd39869a7801a0eeeca1eb01778c6fa0dd15a179a9c078bf40e7a764736f6c63430008130033",
  "immutableReferences": {},
  "source": "// SPDX-License-Identifier: MIT\r\npragma solidity ^0.8.0;\r\n\r\ncontract Authenticator {\r\n    address public authorizedUser;\r\n\r\n    function authorize(address _user) public {\r\n        authorizedUser = _user;\r\n    }\r\n\r\n    function isAuthorized() public view returns (bool) {\r\n        return msg.sender == authorizedUser;\r\n    }\r\n}\r\n",
  "sourcePath": "C:\\coupon\\truffleProject\\contracts\\Authenticator.sol",
  "compiler": {
    "name": "solc",
    "version": "0.8.19+commit.7dd6d404.Emscripten.clang"
  },
  "schemaVersion": "3.4.13",
  "updatedAt": "2023-04-30T02:00:48.677Z",
  "networkType": "ethereum",
  "devdoc": {
    "kind": "dev",
    "methods": {},
    "version": 1
  },
  "userdoc": {
    "kind": "user",
    "methods": {},
    "version": 1
  }
}